:020000040000FA
:1000000038870000290100003101000033010000A1
:1000100000000000000000000000000000000000E0
:10002000000000000000000000000000350100009A
:10003000000000000000000037010000390100004E
:100040003B0100003B0100003B0100003B010000C0
:100050003B0100003B0100003B0100003B010000B0
:10006000D70A00003B0100003B0100003B010000FB
:100070003B0100003B0100003B0100003B01000090
:100080003B0100003B0100003B010000770700003E
:10009000970700003B0100003B0100003B0100000E
:1000A00000F002F800F030F80CA030C8083824182E
:1000B0002D18A246671EAB4654465D46AC4201D1A0
:1000C00000F022F87E460F3E0FCCB64601263342A2
:1000D00000D0FB1AA246AB46334318471C0E000063
:1000E0003C0E00000023002400250026103A01D316
:1000F00078C1FBD8520700D330C100D50B607047E0
:100100001FB51FBD10B510BD00F0F0FD1146FFF783
:10011000F7FF00F09BFA00F008FE03B4FFF7F2FFD0
:1001200003BC00F00FFE0000074880470748004767
:10013000FEE7FEE7FEE7FEE7FEE7FEE704480549C7
:10014000054A064B7047000061010000A100000055
:1001500038840000388700003885000038850000AA
:1001600005200007408980210840002817D100BFE2
:1001700005200007808A802108400028F8D005204B
:10018000000740898008800005210907488100BFD9
:10019000052000074089802108400028F8D0044845
:1001A000044908607047024802490860704700002F
:1001B00000E1F5050480000008B500200346032295
:1001C000120201460090022000F0EEFD00200346DE
:1001D000024607210090022000F0E6FD00200346C1
:1001E000032212020221009000F0DEFD00200346EF
:1001F0000322120201460090012000F0D5FD0020EC
:100200000723032212020146009000F0CDFD0020DA
:100210000623DA011946009000F0C6FD08BD10B5AE
:1002200000200521090708800820164908800520BC
:100230000007408A20218843203005210907488291
:100240000846408A8021884380300521090748827A
:100250000846008A022188430521090708820846CA
:10026000008A0221884305210907088200BF052072
:100270000007808A082108400028F8D0FFF79CFF7B
:1002800010BD00000033005010B5002819DAFE4AF6
:1002900003071B0F083B9B089B00D2588307DC0E0B
:1002A000FF23A3409A438B071B0E8407E40EA34051
:1002B0001A43F54B0407240F083CA408A4001A5164
:1002C00018E0F24A03231B02D21883089B00D2587D
:1002D0008307DC0EFF23A3409A438B071B0E840782
:1002E000E40EA3401A43E94B032424021B1984089B
:1002F000A4001A5110BD002107E0002200E0521CAA
:10030000FF23F5339A42FAD3491C8142F5D3704753
:1003100010B500F09FFA6420FFF7EDFFE22000F037
:1003200074FB6420FFF7E7FFAF2000F06EFB2F2087
:1003300000F06BFB252000F068FB812000F065FBDE
:100340001F2000F062FBA02000F05FFBC82000F03F
:100350005CFBA62000F059FBA42000F056FBF8201F
:1003600000F053FB002000F050FB10BD70B50646B6
:10037000002413E02146B031C8B200F046FB102043
:1003800000F043FB002000F040FB002503E0304676
:1003900000F04EFB6D1C802DF9D3641C082CE9D3B2
:1003A00070BDFEB507460C46154600200090264657
:1003B00021E03146B031C8B200F027FB29110846D0
:1003C000103000F022FB2807000F00F01EFB002079
:1003D00001900CE07A0100995118AD4A505C00F090
:1003E00027FB0098401C00900198401C0190019848
:1003F0001028EFD3761CA01C8642DAD3FEBDFEB5D2
:1004000007460C46154600200090264621E031465E
:10041000B031C8B200F0F9FA29110846103000F0E6
:10042000F4FA2807000F00F0F0FA002001900CE029
:100430003A0100995118974A505C00F0F9FA009877
:10044000401C00900198401C019001980828EFD3AF
:10045000761CA01C8642DAD3FEBDF8B50027002525
:1004600022E0002418E02146B031C8B200F0CDFAF5
:10047000122000F0CAFA002000F0C7FA002608E0B7
:10048000F0216943844A8918C85D00F0D1FA7F1CC5
:10049000761C302EF4D3641C052CE4D300277D2079
:1004A000C000FFF728FF6D1C022DDAD3F8BD70B530
:1004B00004460D46B82000F0A8FA2111102211437D
:1004C000084600F0A2FA2007000F00F09EFA002D67
:1004D00003D0002000F0ACFA02E0012000F0A8FAFE
:1004E00070BD10B5012000F0B1FC032000F0A2FCAB
:1004F00000221146012000F0B3FA0022114667489D
:1005000000F0D5FA00F0D8FA00F0BEFC10BD10B52E
:1005100063480078401C62490870084600785A28F1
:100520007DD1002008705F4800784006000E5D49CC
:10053000087008460078782801DD012000E00020DE
:10054000584909782D2901DA012100E000210843EA
:10055000002828D0002206211046FFF722FF102293
:1005600006210120FFF71DFF202206210220FFF7B0
:1005700018FF302206210320FFF713FF4022062137
:100580000420FFF70EFF502206210846FFF709FF5F
:10059000602206210720FFF704FF702206210820B1
:1005A000FFF7FFFE33E0002206211046FFF7F9FEB9
:1005B000102206210120FFF7F4FE2022062102204E
:1005C000FFF7EFFE302206210320FFF7EAFE40226C
:1005D00006210420FFF7E5FE4A2206210920FFF745
:1005E000E0FE0A212F48007800F0DAFAC4B2562261
:1005F00006212046FFF703FF0A212A48007800F071
:10060000CFFACCB2602206212046FFF7F8FE002088
:100610002449087000F038FC0021022000E009E0C5
:1006200000F0EAFB132001218140184A803211605A
:1006300000BF00BF10BD16201B4908801320488052
:100640003120000188811948088270470EB5FFF7F4
:10065000E6FDFFF7E4FDFFF744FF154800F004FC5A
:100660000020144908700320487000200090019079
:1006700003460246014602900E4800F008F9FFF7D3
:10068000DAFF0121132017E01CED00E000E100E09B
:10069000EB8100002B8300000B800000FAFF0000BC
:1006A000CC83000008800000001400500303000009
:1006B0000F05000009800000FFF7E6FD022114206D
:1006C000FFF7E2FD142000F0A3F8FFF721FE7D20E4
:1006D000C000FFF710FE0020FFF748FE002108468B
:1006E000FFF7E5FE00210A20FFF7E1FE00210C20C4
:1006F000FFF7DDFE00211020FFF7D9FE00211220B8
:10070000FFF7D5FE00211420FFF7D1FE00212120A4
:10071000FFF7CDFE00212E20FFF7C9FE00213B2070
:10072000FFF7C5FE00214A20FFF7C1FE00214F2040
:10073000FFF7BDFE00215720FFF7B9FE002166201C
:10074000FFF7B5FE00217420FFF7B1FE00217820ED
:10075000FFF7ADFE00217B20FFF7A9FE00217F20DF
:10076000FFF7A5FE00217D20FFF7A1FE01202C4907
:10077000087000BFFEE710B529480078002806D0B1
:10078000FFF76BFE27480078401C264908700120BF
:100790002549C88110BD10B521480078002833D004
:1007A000002206211046FFF7FCFD10220621012041
:1007B000FFF7F7FD202206210220FFF7F2FD30228D
:1007C00006210320FFF7EDFD402206210420FFF75C
:1007D000E8FD502206210520FFF7E3FD60220621F7
:1007E0000520FFF7DEFD702206210520FFF7D9FD69
:1007F0000021022000F0F2FA132000F009F8002096
:100800000849087000F036FB02200749C88110BD76
:10081000C206D20E01219140044A116070470000C7
:10082000CB830000088000000014005000E100E0CD
:1008300010B5894A5178107800F0DEFA02210020C4
:1008400000F0CCFA10BD10B5834A5178107800F052
:10085000C5FA10BD10B50221002000F0CDFA7E4A85
:100860005178107800F0BAFA10BD10B502210020BE
:1008700000F0B4FA10BD10B50021012000F0BCFA60
:1008800010BD10B50021012000F0A8FA10BDF8B588
:1008900004460D4616461F4620786F49087060785A
:1008A0004870FFF7D0FF0520000780880121C902AA
:1008B0008843401805210907888068480088400857
:1008C00040006649088008460088FF21813188433E
:1008D000E9010843614908800846008840218843AF
:1008E000B10108435D490880084600880421884317
:1008F000B900084359490880084600880221884306
:100900000699490008435549088008460088012196
:10091000890388430799890308435049088008469A
:100920000088182188430899C90008434B4908806A
:100930000846008840084000401C0880F8BD474930
:10094000098849084900454A118011460988FF2253
:1009500081329143C2011143404A118011460988F6
:1009600049084900491C1180704710B53B48008870
:10097000400840003949088005200007808801218F
:10098000C9028843052109078880334A51781078C5
:1009900000F024FA10BD31480088400840002F497B
:1009A0000880704710B50146002000222B4B1B88A1
:1009B000FF2481342340DA11012A02DD0B0C274C7D
:1009C000A380264C618000BF244B1B880124640354
:1009D00023405B13002BF7D00123204CE380012A36
:1009E00002DD23469B8818041C4B5B88181810BD39
:1009F00070B504460025FFF71BFF2046FFF7D2FF26
:100A00000546FFF720FF284670BD10B50446FFF7E6
:100A100032FF1248448000BF10480088012149037A
:100A2000084040130028F7D001200C49C88010BDB1
:100A300070B504460025FFF724FF0848448000BF36
:100A40000648008801214903084040130028F7D0D8
:100A500001200249C88070BDCD8300000012005003
:100A600070B504460D461646434800680821884381
:100A7000E9000822114008433F4908600846006821
:100A800004218843B1000422114008433A49086018
:100A90000846006802218843610002221140084391
:100AA00035490860FE21082000F02FF870BD334B57
:100AB00058809980DA807047082001218140304AAF
:100AC000116000BF70470820012181402C4A80320C
:100AD000116000BF704710B52A480068002802D096
:100AE00028480068804710BD70B506460C4615467C
:100AF000012000F0D3F9304600F0DCF9204600F088
:100B0000EDF9284600F0E4F970BD10B5002819DAB7
:100B10001D4A03071B0F083B9B089B00D258830705
:100B2000DC0EFF23A3409A438B071B0E8407E40EC1
:100B3000A3401A43144B0407240F083CA408A40044
:100B40001A5118E00E4A03231B02D21883089B0097
:100B5000D2588307DC0EFF23A3409A438B071B0E5A
:100B60008407E40EA3401A43054B032424021B19F7
:100B70008408A4001A5110BD003400500034005005
:100B800000E100E0D08300001CED00E0002203093A
:100B90008B422CD3030A8B4211D300239C464EE098
:100BA00003460B433CD4002243088B4231D3030954
:100BB0008B421CD3030A8B4201D394463FE0C30906
:100BC0008B4201D3CB01C01A524183098B4201D31E
:100BD0008B01C01A524143098B4201D34B01C01A09
:100BE000524103098B4201D30B01C01A5241C30881
:100BF0008B4201D3CB00C01A524183088B4201D3F0
:100C00008B00C01A524143088B4201D34B00C01ADB
:100C10005241411A00D201465241104670475DE0F0
:100C2000CA0F00D04942031000D340425340002273
:100C30009C4603098B422DD3030A8B4212D3FC221C
:100C4000890112BA030A8B420CD3890192118B429B
:100C500008D3890192118B4204D389013AD09211B1
:100C600000E08909C3098B4201D3CB01C01A52416C
:100C700083098B4201D38B01C01A524143098B4235
:100C800001D34B01C01A524103098B4201D30B011E
:100C9000C01A5241C3088B4201D3CB00C01A524143
:100CA00083088B4201D38B00C01A5241D9D243082A
:100CB0008B4201D34B00C01A5241411A00D2014667
:100CC000634652415B10104601D34042002B00D5D1
:100CD0004942704763465B1000D3404201B5002093
:100CE000C046C04602BD704770477047754600F069
:100CF00025F8AE46050069465346C008C000854643
:100D000018B020B5FFF71AFA60BC00274908B646AC
:100D10000026C0C5C0C5C0C5C0C5C0C5C0C5C0C50A
:100D2000C0C5403D49008D46704710B50446C046D9
:100D3000C0462046FFF7F1F910BD0000004870479B
:100D4000D483000001491820ABBEFEE72600020054
:100D5000704770B58C180578401C6B075B0F01D18C
:100D60000378401C2A1106D10278401C03E0067863
:100D7000401C0E70491C5B1EF9D12B0705D40023C3
:100D8000521E0DD40B70491CFAE70378401CCB1A95
:100D9000921C03E01D780D70491C5B1C521EF9D596
:100DA000A142D8D3002070BDFFB581B004460D46E6
:100DB00016460A9F002F04D02946204600F00EF860
:100DC00003E02946204600F017F83246294620461F
:100DD000049B00F01FF805B0F0BD000030B50328FB
:100DE00000D104204401034D63199A1C01248C4056
:100DF000148030BD0030005030B5032800D10420ED
:100E00004401034D63191A1D01248C40148030BD28
:100E100000300050F0B5032800D104204601044FF3
:100E2000F5194E00AF1DF41916461E432680F0BD7D
:100E30000030005004490968890889008207920F30
:100E40001143014A116070470400005005490968C8
:100E500008229143C20008231A401143014A11603D
:100E6000704700000400005001490860704700000E
:100E7000D08300000348006840084000401C01493E
:100E80000860704700340050034800684008400084
:100E900001490860704700000034005004490968A7
:100EA00049084900C207D20F1143014A1160704737
:100EB000103400500549096804229143820004233C
:100EC0001A401143014A116070470000103400506D
:100ED0000149C88170470000003400500549096885
:100EE00002229143420002231A401143014A116039
:100EF0007047000010340050180F00000080000000
:100F0000D4030000520D0000A4100000D4830000A0
:100F100064030000E4000000113CE1F50504817E5B
:100F200080C0E0E0F001DFE0E0C080C0C011B10BA4
:100F300022FCFF0183FCF80D1E031F3F7F2ED57F8F
:100F40001F07030D100307070F3800091B7F3F1F02
:100F50001F0F0703011809010303070F0F0F0726CF
:100F6000091227580A80C0F0F8F8FCFCFEFE52284F
:100F700008FEFEFEFCFCF8F015190B99151CF8F89C
:100F8000F0F60924EC790112FE0B1F071FEC89F41F
:100F90004A0FA21A01B20910ECA9F50914F42A01AA
:100FA00039193A293B1B7F3F262927C9281008FCFD
:100FB000FC404040FCFC1008C0E0A0A0A0E0C03312
:100FC0000F0F19052008070F0808080C044917110E
:100FD000380820E0C0602060C0181904111B080FF9
:100FE0000531272020F8FC20201C04FCFC1F328047
:100FF000191E19381D080F070804795869486958DF
:1010000069486940A14940011BB30C0C19787D4423
:10101000E40C1CA029988C080C0EA059181DC0E0E7
:1010200020200C7918398819A06920816920B1E342
:101030003030C3060627E010080810E0270F102004
:1010400020100F541010F83C20203FD81A70681B55
:101050008870461D282422214A1E300888884808A6
:101060001A189033110E3BC0203227070424243F66
:10107000241AF8201A08834B19212036E01088889A
:10108000184B0F11103E380808C838A3523F1A7089
:101090002E29608F1C222121221C90111D31222219
:0410A000119081002A
:04000005000000A156
:00000001FF
